{
  "contractName": "SimpleToken",
  "abi": [
    {
      "inputs": [],
      "stateMutability": "nonpayable",
      "type": "constructor"
    },
    {
      "inputs": [
        {
          "internalType": "address",
          "name": "_to",
          "type": "address"
        },
        {
          "internalType": "uint256",
          "name": "_amount",
          "type": "uint256"
        }
      ],
      "name": "transfer",
      "outputs": [],
      "stateMutability": "nonpayable",
      "type": "function"
    },
    {
      "inputs": [
        {
          "internalType": "address",
          "name": "_owner",
          "type": "address"
        }
      ],
      "name": "balanceOf",
      "outputs": [
        {
          "internalType": "uint256",
          "name": "",
          "type": "uint256"
        }
      ],
      "stateMutability": "view",
      "type": "function",
      "constant": true
    }
  ],
  "bytecode": "0x608060405261271060005534801561001657600080fd5b506000805433825260016020526040909120556101db806100386000396000f3fe608060405234801561001057600080fd5b50600436106100365760003560e01c806370a082311461003b578063a9059cbb14610076575b600080fd5b610064610049366004610117565b6001600160a01b031660009081526001602052604090205490565b60405190815260200160405180910390f35b610089610084366004610139565b61008b565b005b3360009081526001602052604090205481106100a657600080fd5b33600090815260016020526040812080548392906100c5908490610179565b90915550506001600160a01b038216600090815260016020526040812080548392906100f2908490610192565b90915550505050565b80356001600160a01b038116811461011257600080fd5b919050565b60006020828403121561012957600080fd5b610132826100fb565b9392505050565b6000806040838503121561014c57600080fd5b610155836100fb565b946020939093013593505050565b634e487b7160e01b600052601160045260246000fd5b8181038181111561018c5761018c610163565b92915050565b8082018082111561018c5761018c61016356fea2646970667358221220b7371c52dae1f003cb3fe4f2490085b66b03360d6f9bf36feeda4e6ea6abf64e64736f6c63430008130033",
  "immutableReferences": {},
  "source": "// SPDX-License-Identifier: MIT\npragma solidity >=0.4.22 <0.9.0;\n\ncontract SimpleToken {\n\n  uint INITIAL_SUPPLY = 10000;\n\n  mapping(address => uint) balances;\n\n  constructor() {\n    balances[msg.sender] = INITIAL_SUPPLY;\n  }\n\n  // transfer token for a specified address\n  function transfer(address _to, uint _amount) public {\n    require(balances[msg.sender] > _amount);\n    balances[msg.sender] -= _amount;\n    balances[_to] += _amount;\n  }\n\n  // Gets the balance of the specified address\n  function balanceOf(address _owner) public view returns (uint) {\n    return balances[_owner];\n  }\n}\n",
  "sourcePath": "/Users/luo/Desktop/workspace/learning-ethereum-dapp/02. simple_token/contracts/SimpleToken.sol",
  "compiler": {
    "name": "solc",
    "version": "0.8.19+commit.7dd6d404.Emscripten.clang"
  },
  "schemaVersion": "3.4.15",
  "updatedAt": "2023-08-14T17:38:53.431Z",
  "networkType": "ethereum",
  "devdoc": {
    "kind": "dev",
    "methods": {},
    "version": 1
  },
  "userdoc": {
    "kind": "user",
    "methods": {},
    "version": 1
  }
}